:020000040000fa
:10000000f03f002001720000798000007f80000036
:1000100000000000000000000000000000000000e0
:10002000000000000000000000000000fb1c0000b9
:100030000000000000000000fb1c00002175000013
:10004000fb1c0000fb1c0000fb1c0000fb1c000054
:10005000fb1c0000fb1c0000fb1c0000fb1c000044
:10006000fb1c0000fb1c00001b800000a5320000f0
:10007000451f0000fb1c0000fd1c0000fb1c0000d5
:10008000fb1c0000fb1c0000fb1c0000fb1c000014
:1000900029800000fb1c0000fb1c0000f16e00002a
:1000a000416f0000fb1c0000fb1c0000fb1c00005b
:0c00b000fb1c0000fb1c0000fb1c0000ff
:020000040000fa
:1000bc00f8b5c046f8bc08bc9e467047e17100001c
:1000cc00f8b5c046f8bc08bc9e467047b971000034
:020000040000fa
:1000dc00ff0fff0fff0fff0fff0fff0fff0fff0fa4
:1000ec00ff0fff0fff0fff0fff0fff0fff0fff0f94
:1000fc00ff0fff0fff0fff0fff0fff0fff0fff0f84
:10010c00ff0fff0fff0fff0fff0fff0fff0fff0f73
:10011c00ff0fff0fff0f5514ff0fff0fed16ff0f13
:10012c00ff0f461bff0fff0fff0fff0fff0fff0f00
:10013c00ff0fff0fff0fff0fff0fff0fff0fff0f43
:10014c00ff0fff0fff0fff0fff0fff0fff0fff0f33
:10015c00ff0fff0fff0fff0fff0fff0fff0fc70f5b
:10016c00c70ff718ff0fff0fff0fff0fff0fff0f4a
:10017c00ff0fff0fff0fff0fff0fff0fff0fff0f03
:10018c0064106410ff0fff0fff0fff0fff0fff0f27
:10019c00ff0fff0fff0fff0fff0fff0fff0fff0fe3
:1001ac00ff0fff0fff0fff0fff0fff0fff0fff0fd3
:1001bc00ff0fff0fff0fff0fff0fff0fff0fff0fc3
:1001cc00ff0f3117ff0fff0fff0fff0fff0f000087
:1001dc00ff0f260eff0fff0f260eff0fff0f18103d
:1001ec001810ff0fee12ff0fff0fff0fff0fff0f87
:1001fc00ff0fff0fff0fff0fff0fff0fff0fff0f83
:10020c00ff0f9014ff0f1a15ff0fff0fff0fff0fbb
:10021c00ff0fff0fff0fff0fff0fff0fff0fff0f62
:10022c00ff0f18106410ff0fff0fff0fff0fff0fd2
:10023c00ff0fff0fff0fff0fff0fff0fff0fff0f42
:10024c00ff0fff0fff0fff0fff0fff0f4414ff0fe8
:10025c00ff0fff0fff0fff0fff0fff0fff0f5514c7
:10026c0044142b122b129413941394139413ff0f06
:10027c00ff0fff0fff0fff0fff0fff0fff0fff0f02
:10028c00ff0f94139413941394139413ff0fff0ff5
:10029c00ff0fff0fff0fff0f2b12ff0fff0f2b1284
:1002ac00ff0fff0f44144414ff0fff0fff0fff0f3e
:1002bc00ff0fff0fff0fff0fff0fff0fff0f551467
:1002cc00ff0fff0fed16ff0f461bc70fff0fff0fa2
:1002dc00ff0fee12c70fff0fff0fff0ff718641081
:1002ec006410260e1810ff0fff0fff0fff0fff0fec
:1002fc00ff0f1810ff0f3117ff0f260eff0fff0f08
:10030c00ff0fff0fff0fff0fff0f9014ff0fff0fdb
:10031c00ff0fff0fff0fff0fff0fff0fff0fff0f61
:10032c00ff0fff0fff0fff0fff0fff0fff0fff0f51
:10033c00ed16ff0f461bc70fc70ff71864103117c8
:10034c00260e260e1810ff0fee129014ff0f000051
:10035c00ff0fff0fff0fff0fff0fff0fff0fff0f21
:10036c00ff0fff0fff0fff0fff0fff0fff0f00001f
:10037c00ff0fff0fff0fff0fff0fff0fff0fff0f01
:10038c00ff0fff0fff0fff0fff0fff0fff0fff0ff1
:10039c00ff0fff0f1a15ff0f90141810ee12ff0f1e
:1003ac00260eff0fff0fff0f1810260eff0f000079
:1003bc00ff0fff0fff0fff0f31176410f718ff0f20
:1003cc00ff0fff0fff0fff0f6410ff0fff0fff0f4b
:1003dc00ff0fff0fc70fff0fff0fff0fff0fff0fd9
:1003ec00ff0fff0fff0fff0fff0fff0fff0fff0f91
:1003fc00ff0fff0fc70f461bff0fff0fff0fff0f66
:10040c00ff0fff0fff0fff0fff0fff0fff0fff0f70
:10041c00ff0fed16ff0fff0fff0fff0fff0fff0f6b
:10042c005514ff0fff0fff0fff0fff0fff0fff0ff5
:10043c00ff0fff0fff0fff0fff0fff0fff0fff0f40
:10044c00ff0fff0fff0fff0fff0fff0fff0f00003e
:10045c00ff0fff0fff0fff0fff0fff0fff0fff0f20
:10046c00ff0fff0fff0fff0fff0fff0fff0f00001e
:10047c00ff0fff0fff0fff0fff0fff0fff0fff0f00
:10048c00ff0fff0fff0fff0fff0fff0fff0f0000fe
:10049c00ff0fff0fff0fff0fff0fff0fff0fff0fe0
:1004ac00ff0fff0fff0fff0fff0fff0fff0fff0fd0
:1004bc00ff0fff0fff0fff0fff0fff0fff0fff0fc0
:1004cc00ff0fff0fff0fff0fff0fff0fff0f0000be
:1004dc00ff0fff0fff0fff0fff0f44144414ff0f0c
:1004ec00ff0fff0fff0fff0fff0fff0fff0fff0f90
:1004fc00ff0fff0fff0fff0fff0fff0fff0fff0f80
:10050c00fd13ff0fff0fff0fff0fff0fff0fff0f6d
:10051c00ff0fff0fff0fff0fff0fff0ffd13260e37
:10052c00260e9011901190141a15ff0fff0fff0f4c
:10053c00ff0fff0fff0fff0fff0fff0fff0fff0f3f
:10054c00ff0fff0fff0fff0fff0fff0fff0fff0f2f
:10055c00ff0fff0f901490119011ff0fff0fff0f63
:10056c00ff0fff0fff0fff0fff0fff0fff0fff0f0f
:10057c00ff0fff0fff0fff0fff0fff0fff0fff0fff
:10058c00ff0fff0fff0fff0fff0fff0fff0fff0fef
:10059c00ff0fff0fff0fff0fff0fff0fff0fff0fdf
:1005ac00ff0fff0fff0fff0fff0fff0fff0fff0fcf
:1005bc00ff0fff0fff0fff0fff0fff0fff0fff0fbf
:1005cc00ff0fff0fff0fff0fff0fff0fff0fff0faf
:1005dc00ff0fff0fff0fff0fff0f260e260efd1351
:1005ec00fd13ff0fff0fff0f44144414ff0fff0ff9
:1005fc00ff0fff0fff0fff0fff0fff0fff0fff0f7f
:10060c00ff0fff0fff0fff0fff0fff0fff0fff0f6e
:020000040000fa
:10061c0080b500af8223db05f42212011a6082231d
:10062c00db05cf4a1a618223db0540220221995453
:10063c008223db054122022199548223db054522ca
:10064c00012199548223db054622002199548223ef
:10065c00db054722012199548223db054822002126
:10066c0099548223db054922002199548223db050e
:10067c004a22002199548223db054b2200219954f4
:10068c008223db054c22012199548223db054d2268
:10069c00012199548223db0554220221995482238f
:1006ac00db055522022199548223db0556220221b7
:1006bc0099548223db055722022199548223db05ae
:1006cc005c22022199548223db05302200219954ab
:1006dc008223db053222102199548223db0533223d
:1006ec00102199548223db05342200219954822352
:1006fc00db053522002199548223db053622222189
:10070c0099548223db053a22002199548223db057c
:10071c003b22002199548223db053e22002199546f
:10072c008223db0580228f4999508223db0590229e
:10073c008d4999508223db05c022002199548223d4
:10074c00db05c122002199548223db05c222002142
:10075c0099548223db05ce22022199548223db0596
:10076c00d022012199548223db05d12201219954f5
:10077c008223db05d422022199548223db05d52266
:10078c00022199548223db05d8220021995482231b
:10079c00db05d922002199548223db05de220121bd
:1007ac0099548223db05df22012199548223db0536
:1007bc00b022002199548223db05b12200219954e7
:1007cc008223db05b722002199548223db05b82252
:1007dc00222199548223db05ba22002199548223c9
:1007ec00db05bc22002199548223db05bf22222188
:1007fc0099548223da0580235b005c49d150822313
:10080c00da0588235b005a49d1508223da05a023ec
:10081c005b000221d1548223da054223ff330021ed
:10082c00d1548223da054423ff330021d15482238f
:10083c00da05a3235b000021d1548223da05482377
:10084c00ff330221d1548223da054a23ff330021de
:10085c00d1548223da054c23ff330021d154822357
:10086c00da05a8235b000021d1548223da05522338
:10087c00ff330021d1548223da05a9235b00022126
:10088c00d1548223da055423ff330021d15482231f
:10089c00da05aa235b000021d1548223da05ac23ac
:1008ac005b000021d1548223da055a23ff33022145
:1008bc00d1548223da05ad235b000221d15482236b
:1008cc00da055c23ff330021d1548223da05ae23f1
:1008dc005b000021d1548223da0598235b000021b0
:1008ec00d1548223da053223ff330021d1548223e1
:1008fc00da053423ff330021d1548223da059a23fd
:10090c005b000021d1548223da053623ff3300210a
:10091c00d1548223da059c235b000021d15482231d
:10092c00da053a23ff330021d1548223da059d23c3
:10093c005b000021d1548223da059e235b00002149
:10094c00d1548223da053e23ff330021d154822374
:10095c00da059f235b000021d154c046bd4680bd03
:10096c004030001007003003050030004a0a1b1904
:04097c004000000136
:020000040000fa
:10098000f0b58db000af2e23fb1800221a80102383
:10099000fb1800221a601a71c74bbb6200237b62ee
:1009a00024e0bb6a1b782f2b11d9bb6a1b78392b2b
:1009b0000dd8bb6a1a787b6a591c7962303ad1b279
:1009c0001022ba18d15402e0bb6a0133bb62bb6a81
:1009d0001b78002b03d0bb6a1b782c2bf4d1bb6a8d
:1009e0001b782c2b02d1bb6a0133bb62bb6a1b781c
:1009f000002b02d07b6a042bd3dd2e243b191a88ee
:100a0000ae4bd318ae4a1100180007f088fa030065
:100a100099b220003b183a1812888a181a801023bd
:100a2000fb181b78012b00d06fe02223fb1800225b
:100a30001a801823fb183a1812881a803b183a18a3
:100a4000128802321a802023fb1800221a8042e00a
:100a500020257b191b88a022d201944663441800ec
:100a60000f26bb190122190004f056fcbb191b7894
:100a7000002b2ad07b191b88013319122e243b1915
:100a80001b883a19581c10801a00c9b28b4b995414
:100a90007b191b88dab23b191b883919581c08804e
:100aa0001900531cdab2854b5a543b191b883a196a
:100ab000591c11801a00bb191978804b99542221b6
:100ac0007b181a887b1801321a8020217b181a881b
:100ad0007b1801321a802023fb181a886823ff3301
:100ae0009a42b5d922203b181b881b0a9ab21824b7
:100af0003b191b88d1b2714ad1543b191b88013371
:100b00003a181288d1b26d4ad1542e243b191a8852
:100b10006a4bd3186b4a1100180007f000fa030063
:100b200099b220003b183a1812888a181a801023ac
:100b3000fb18db78012b00d097e01e23fb18002266
:100b40001a801623fb183a1812881a803b183a1894
:100b5000128802321a801c23fb1800221a806ae0d5
:100b60001c23fb181b888022120194466344db007f
:100b700018003b1d0822190004f0cefb1b23fb18b4
:100b800000221a701a23fb1800221a7011e01a238f
:100b9000fb181b783a1dd35c002b04d01b23fb18d9
:100ba00001221a700ae01a217b181a787b18013288
:100bb0001a701a23fb181b78072be8d91b23fb1884
:100bc0001b78002b31d01c257b191b88013319128f
:100bd0002e243b191b883a19581c10801a00c9b2e0
:100be000364b99547b191b88dab23b191b8839198b
:100bf000581c08801900531cdab2304b5a543b1968
:100c00001a882e4bd2183b1d1000190008231a0019
:100c100007f0baf93b193a19128808321a801e21d6
:100c20007b181a887b1801321a801c217b181a88bd
:100c30007b1801321a801c23fb181a886823ff33a3
:100c40009a428dd91e203b181b881b0a9ab2162483
:100c50003b191b88d1b2194ad1543b191b88013367
:100c60003a181288d1b2154ad1542e243b191a8849
:100c7000124bd318144a1100180007f050f9030062
:100c800099b220003b183a1812888a181a803b182b
:100c90001b883a18591c11801a00084b0d219954d1
:100ca0003b181b88054a0021d1543b181b881800ab
:100cb000bd460db0f0bdc046691300200000002005
:0c0cc0007432000080320000843200001a
:020000040000fa
:100ccc000023f0b506001500b1b007910393079906
:100cdc000b78002b00d10ce101235b420c9310ab81
:100cec0000240e9380230b940d940f930b5d002b1b
:100cfc0001d0252b2ad1002c06d02200300006f082
:100d0c00e1fd079b1b190793079b1a78252a00d036
:100d1c00e4e0013304930793022301219c4610273e
:100d2c00079803782b2b1ad025d8202b1ad0232bdd
:100d3c001dd02a2b28d006f091fb0d90079b1a781a
:100d4c00303a092a31d801330793f7e70134cde75c
:100d5c000b9b05930b4301300b930790e0e70423a7
:100d6c000b9a0fe00b9b0593059a08230ae00b9b4b
:100d7c0005933b43efe72d2bead0302bd9d16246bc
:100d8c000b9b05931343e6e72b6801301a1d1b6878
:100d9c0007902a600d93002b07da0b9a5b420592a1
:100dac00012205990d934a400b920b9bda0702d551
:100dbc00022293430b93079b1a782e2a0ed1002202
:100dcc00581c0c9207905a782a2a27d10233079381
:100ddc002b681a1d1b682a6005930c9307a806f054
:100dec00c9fc079b0700187807f01ff9692800d188
:100dfc0082e034dc632800d1dbe01adc252800d14a
:100e0c00e8e0612858d0049b01220793002352424a
:100e1c000c920b930d9300930232e5e006f01efb4f
:100e2c000c90079b1a78303a092ad7d801330793cc
:100e3c00f7e7642860d06728e5dc2a00390008a8a9
:100e4c0006f055fd002800d1afe0079b0ba95a1cfa
:100e5c0007921b7808aa300007f012f93de07028c1
:100e6c0000d17de016dc6e2800d197e06f28cad146
:100e7c002b000022390008a803f018fd002800d12f
:100e8c0093e0079b08aa01330ba93000079307f0e6
:100e9c00f5f822e0752840d078284fd07328b2d1cd
:100eac00802f00d081e0079b2a6801330793131d24
:100ebc002b601268002388e02a00390008a806f08d
:100ecc0016fd002800d170e0079b0ba95a1c079255
:100edc001b7808aa300007f0d3f82418039b1c19c0
:100eec00a34200dc82e04f22414b1a6001235b429b
:100efc000393039831b0f0bd2b000122390008a8f0
:100f0c0003f0d4fc002850d0079b08aa01330ba98e
:100f1c003000079307f0b2f8dfe72b00002239000e
:100f2c0008a803f0c3fc00283fd0079b08aa013394
:100f3c000ba93000079307f0a1f8cee72b00002295
:100f4c00390008a803f0b2fc00282ed0079b5a1ccd
:100f5c0007921b7808aa0ba9300001f0d9febce758
:100f6c002b000022f02108a803f0a0fc00281cd0c4
:100f7c00079b099a01330793089b13430cd11d4f10
:100f8c00380006f077ff390002000b9b00930d9b95
:100f9c00300004f095ffa0e77823dbe7039b3900d2
:100fac001a1908a82b0005f091fb079b0133079336
:100fbc0094e7802ff9d1079b013307932b681a1df7
:100fcc001b682a6008aa137001230ba9300006f0d5
:100fdc0029f882e7802fe8d10122079b0133079380
:100fec000b9b049300930d9b0349d1e703946ee68e
:0c0ffc001c160020688000006e800000c1
:020000040000fa
:10100800b0b588b000af1e23fb1800221a801c233d
:10101800fb1800221a801b217b1800221a701a2341
:10102800fb1800221a70a64b3b613b6911331b78f1
:10103800322b03d17b1801221a7007e03b69113368
:101048001b78312b02d19f4b00221a801e243b199a
:101058001a889d4bd3189d4a1100180006f05bffb3
:10106800030099b220003b183a1812888a181a808f
:101078000e23fb183a1812881a803b183a1812885f
:1010880002321a801b23fb181b78002b02d08d4bd1
:101098001a8800e000220c217b181a801823fb18fc
:1010a8007a1812881a8093e01823fb181b8880226c
:1010b800120194466344db0018003b1d0822190006
:1010c80004f026f91723fb1800221a701623fb18c0
:1010d80000221a7011e01623fb181b783a1dd35c06
:1010e800002b04d01723fb1801221a700ae01621de
:1010f8007b181a787b1801321a701623fb181b7894
:10110800072be8d91723fb181b78002b5ad0182572
:101118007b191b88013319121e243b191b883a19a5
:10112800581c10801a00c9b2674b99547b191b8848
:10113800dab23b191b883919581c08801900531c4e
:10114800dab2614b5a543b191a885f4bd2183b1dcf
:101158001000190008231a0006f012ff3b193a196b
:10116800128808321a801c217b181a887b180132d1
:101178001a801b23fb181b7801225340dbb2002b7b
:101188000ed07b181b88b32b0ad91a23fb1801220f
:101198001a707b191b8801339ab24a4b1a801fe0d8
:1011a8001e23fb181b884a4a93420bd91a23fb18a3
:1011b80001221a701823fb181b8801339ab2414b7d
:1011c8001a800de018217b181a887b1801321a80c2
:1011d8001823fb181a886823ff339a4200d863e75c
:1011e8001b23fb181b78002b07d11a23fb181b782d
:1011f80001225340dbb2002b04d01a23fb18002233
:101208001a7003e01a23fb1801221a701c203b18dd
:101218001b881b0a9ab20e243b191b88d1b22a4a92
:10122800d1543b191b8801333a181288d1b2264a87
:10123800d1541a23fb181b78002b11d01e243b19fc
:101248001a88214bd318234a1100180006f063feb0
:10125800030099b23b193a1912888a181a8010e0cb
:101268001e243b191a88184bd3181b4a1100180062
:1012780006f051fe030099b23b193a1912888a18f0
:101288001a801e203b181b883a18591c11801a0016
:101298000d4b0d2199543b181b880b4a0021d15442
:1012a8001b23fb181b78002b02d0064b00221a8048
:1012b8001e23fb181b881800bd4608b0b0bdc046e9
:1012c80064130020fa150020000000208c32000072
:0c12d800bb0700009c32000084320000c4
:020000040000fa
:1012e400b0b5e6b000aff860b9603b60a44bcc2168
:1012f40049008c46bc4463441a80cb235b00fb1832
:1013040000221a80ca235b00fb1800221a8023e003
:10131400ca2149007b181b88ba68d3181b78ff2b95
:1013240013d07b181b88ba68d218cb2149007b18cc
:101334001b887918581c088019001278914bcc200e
:1013440040008446bc4463445a54ca2149007b1873
:101354001a887b1801321a80ca235b00fa18884b5a
:10136400cc2149008c46bc44634412881b889a42b1
:10137400ced38023ff33fc18cb256d007b191a884c
:101384001023fb181100180005f06efa03002370f7
:10139400be2149007b187a19128817321a807b18eb
:1013a400d4225200b9181a880b889a4201d9002312
:1013b400e1e0c9235b00fb1800221a800023c62247
:1013c4005200ba18136016e0c62464003b191b6867
:1013d400fa68d218c92149007b181b887918581c4f
:1013e400088019003b685b1812781a703b191b6857
:1013f40001333a191360c6235b00fb181b68032be7
:10140400e2dd614bbc225200ba1813600023c422ef
:101414005200ba18136019e0c42464003b191b6815
:10142400bc225200ba181268d218c92149007b188c
:101434001b887918581c088019003b685b181278bf
:101444001a703b191b6801333a191360c4235b00fb
:10145400fb181b68052bdfddc92040003b181b88e7
:101464003a18591c11801a003b689b1801221a7003
:101474003b181b883a18591c11801a003b689b18aa
:10148400cb2149007a181288d2b21a707b181b88b3
:101494001b0a99b23b181b883a18581c10801a0072
:1014a4003b689b18cab21a70c3235b00fb18002266
:1014b4001a801ae0c32464003b191a88c921490020
:1014c4007b181b887918581c088019003b685b1826
:1014d4002c49cc2040008446bc4461448a5c1a7088
:1014e4003b191a883b1901321a80c3235b00fa188e
:1014f400cb235b00fb1812881b889a42dad3c922db
:101504005200bb181b88ba18591c11801a003b687a
:101514009b188022ff32ba1812781a700023c02256
:101524005200ba18136012e0c9225200bb181b887b
:10153400ba18591c11801a003b689b182c221a7087
:10154400c0225200bb181b680133ba181360c023b1
:101554005b00fb181b68072be6ddc92040003b1825
:101564001b883a18591c11801a003b689b180d22dd
:101574001a703b181b881800bd4666b0b0bdc04643
:0c1584006efeffff78feffff4832000003
:020000040000fa
:1015900080b592b012af002005f080fc04f0b6f9df
:1015a00006f03cf906f046fb8d4b0021180006f0d2
:1015b0006bfa8c4b0021180006f08afa8a4b002146
:1015c000180006f073fa894b0121180004f096fe0a
:1015d000874b0021180006f09ffa864b0021180067
:1015e00006f088fa814b0121180004f0bffe824bff
:1015f0000021180006f0a2fa804b0021180006f026
:10160000affa7f4b0021180006f0bcfa06f0daf9b9
:1016100006f0c4f906f0aef98223da058c235b00ec
:1016200080214902d1508223da058c235b004021be
:10163000d1508223db059822042199508223db05b7
:1016400040229a610a2004f07ffc0021002005f06e
:10165000a8fe6c4b1b88dbb2013bd9b2302311933f
:101660000023109360230f9302230e93fe230d9308
:1016700003230c9347230b9342230a9323230993b9
:1016800000230893812307931f2306933e2305938a
:101690000023049300230393012302930023019367
:1016a0000023009355230022042001f02cf903f0bd
:1016b00039fc03f037fc60230193622300930b2372
:1016c00000220021002004f001fb6023019342234b
:1016d0000093172300220b21002004f0f7fa602367
:1016e000019322230093232300221721002004f0da
:1016f000edfaa321032005f075fe434b00221a707a
:10170000fe229205414b111c180002f0b3fc05f0bb
:101710002dfd04f09bfe3e4b1b78dbb2012b37d036
:10172000022b4fd0002b56d13a4b1b68f02b02d81e
:1017300002f0ccfe4ee0374b1b68f02b1ed9354b28
:101740001a68b4235b009a4218d8324b1b68f12bfd
:101750000dd18223da058c235b0080214905d1500d
:10176000a321032005f03efec82004f0edfb06f0a7
:10177000c9fa04f037f806f0d3fa2be0254b1a68c3
:10178000b4235b009a4225d9214b02221a7021e032
:101790008223da058c235b0080214905d150c820c3
:1017a00004f0d2fb05f0d2ff06f0acfa06f044fbe1
:1017b000a321032005f016fe174b03221a7002f036
:1017c0006ffb08e006f09efa002002f0f3f806f046
:1017d000a7fa00e0c0460a2004f0b6fb9be7c0462b
:1017e000b17c0000495c0000eb7f00002516002062
:1017f000dd630000fb7f0000ed790000f554000080
:10180000157a00002a16002028160020dc000000af
:0c18100026160020fc150020721b002092
:020000040000fa
:10181c0080b584b000af78600023bb600f23fb1849
:10182c0000221a707b680421180002f0dbfd8b4b40
:10183c00db781a06894b9b781b041a43874b5b7821
:10184c001b021343854a12781343bb607b68844a9e
:10185c00934231d07b68824a93420dd87b68814a8f
:10186c00934231d07b68804a93421cd07b687f4a7c
:10187c00934200d19ae0e4e07b687d4a934200d128
:10188c0085e07b687a4a934204d87b68794a934214
:10189c0023d0d6e07b68784a93426ad07b68774a3b
:1018ac0093426cd0cde0bb681b0cdab20f23fb1853
:1018bc003f210a401a70c9e0bb68dab20f23fb184b
:1018cc0007210a401a70c1e0bb685b0fdab20f2324
:1018dc00fb1801210a401a70b8e0bb681b0edbb282
:1018ec00db01dab2bb681b0ddbb29b01dbb2402122
:1018fc000b40dbb21343dab2bb681b0cdbb25b01ef
:10190c00dbb220210b40dbb21343dab2bb685b0bba
:10191c00dbb21b01dbb210210b40dbb21343dab29a
:10192c00bb681b0bdbb2db00dbb208210b40dbb26c
:10193c001343dab2bb68db0adbb29b00dbb20421d7
:10194c000b40dbb21343dab2bb689b0adbb2db1889
:10195c00dbb202210b40dbb21343d9b2bb681b0aca
:10196c00dbb201221340dab20f23fb180a431a70c0
:10197c006ce0bb685a0e0f23fb181a7066e0bb684c
:10198c00dab20f23fb181f210a401a705ee0bb6805
:10199c009b0fdbb2db18d9b2bb68dbb20122134060
:1019ac00dab20f23fb180a431a704fe0bb68db0b4b
:1019bc00dbb2db01dab2bb685b0bdbb29b01dbb2e7
:1019cc0040210b40dbb21343dab2bb68db09dbb25c
:1019dc005b01dbb220210b40dbb21343dab2bb68f4
:1019ec009b09dbb21b01dbb210210b40dbb21343b2
:1019fc00dab2bb685b09dbb2db00dbb208210b405f
:101a0c00dbb21343dab2bb681b09dbb29b00dbb25f
:101a1c0004210b40dbb21343dab2bb689b08dbb288
:101a2c00db18dbb202210b40dbb21343d9b2bb682b
:101a3c00dbb201221340dab20f23fb180a431a70ef
:101a4c0004e00f23fb1800221a70c0460f23fb186a
:101a5c001b781800bd4604b080bdc046c8150020d8
:101a6c008c2100505c2100508821005060000050f7
:101a7c005c22005058220050642200506822005012
:020000040000fa
:101a8c00b0b58ab000af78600a00fb1c1a7027232f
:101a9c00fb18ff221a701be12623fb1800221a7078
:101aac0025e07b681b781a0026203b181b781a410e
:101abc001300dab23b181b7801210a40d1b21c2268
:101acc00ba18d1542723fb181a783b181b781a41e3
:101adc001300dab23b181b7801210a40d1b20c2258
:101aec00ba18d1543b181a783b1801321a702625b3
:101afc007b191b78072bd4d97b6801337b601c24a2
:101b0c003b19da790c203b18db795340dab21421fb
:101b1c007b181a703b199a793b189b795340dab2af
:101b2c007b185a703b195a793b185b795340dab2df
:101b3c007b189a703b191a793b181b795340dab20f
:101b4c007b18da703b19da783b18db785340dab241
:101b5c007b181b785340dab27b181a713b199a78b0
:101b6c003b189b785340dab27b181b785340dab29f
:101b7c007b185b785340dab27b185a713b195a7850
:101b8c003b185b785340dab27b181b785340dab2bf
:101b9c007b185b785340dab27b189b785340dab2ef
:101bac007b189a713b191a783b181b785340dab2a0
:101bbc007b185b785340dab27b189b785340dab2cf
:101bcc007b18db785340dab27b18da717b181a7801
:101bdc007b189b785340dab27b18db785340dab22f
:101bec007b181b795340dab23b18da717b185a78a0
:101bfc007b18db785340dab27b181b795340dab28e
:101c0c007b185b795340dab23b189a717b189a783f
:101c1c007b181b795340dab27b185b795340dab2ec
:101c2c007b189b795340dab23b185a717b18da78df
:101c3c007b185b795340dab27b189b795340dab24c
:101c4c007b18db795340dab23b181a717b181a797e
:101c5c007b189b795340dab27b18db795340dab2ac
:101c6c003b18da707b185a797b18db795340dab25f
:101c7c003b189a707b189a793b185a707b18da7952
:101c8c003b181a702723fb1800221a707b190022ac
:101c9c001a7018e026217b181b780c22ba18d35c1a
:101cac001a007b181b789a4013005ab227203b1855
:101cbc001b785bb213435ab23b181a707b181a7814
:101ccc007b1801321a702623fb181b78072be1d9dd
:101cdc00fb1c1b78fa1c591e1170002b00d0dbe684
:0e1cec002723fb181b781800bd460ab0b0bdb8
:020000040000fa
:021cfa00fee703
:020000040000fa
:101cfc0080b584b000af8e4b9b7ddbb2002b00d146
:101d0c0012e18c4b9b6afb60894b5b8b9bb21a007c
:101d1c0002231340022b08d1864b2022ff21995419
:101d2c00844b212202219954b7e0814b5b8b9bb2ef
:101d3c001a0001231340012b08d17e4b2022ff21d6
:101d4c0099547c4b212202219954a6e0784b5b8b51
:101d5c009bb21a0004231340042b08d1754b20228c
:101d6c00ff219954734b21220121995495e0714b19
:101d7c0020229b5c5bb2022b09d003dc002b00d130
:101d8c008ae08ae0032b59d0042b14d085e0694bf0
:101d9c001b69002b07d0674b9b889bb20021180056
:101dac0004f0f0fd79e0634b9b889bb20121180095
:101dbc0004f0e8fd71e05f4b9b69bb605d4b1b69f8
:101dcc00ba689a4226d15b4b5b69002b11d0594bf8
:101ddc009b889bb25a00564b01210a435a62c0465b
:101dec00534bdb69002bfbd1524b2022032199541e
:101dfc0053e04f4b5a684e4bc02189020a435a603c
:101e0c00c0464b4bdb69002bfbd14a4b20220621f1
:101e1c00995442e0474b9a68bb68d318444a1978e6
:101e2c002823d154bb680133bb60c046404bdb69ef
:101e3c00002bfbd13f4bba689a612ee03d4bdb691e
:101e4c007b603c4b5b69013b7a689a420fd1384b03
:101e5c005a68374be021c9020a435a60c046344bda
:101e6c00db69002bfbd1334b202206219954c04651
:101e7c002f4bdb69002bfbd12d492e4bda687b688d
:101e8c00d31828228a5cd2b21a707b6801337b602b
:101e9c00284b7a68da6100e0c046264b20229b5c16
:101eac005bb201331cd1234b202200219954204bcf
:101ebc005a681f4bc02189020a435a60c0461c4b0a
:101ecc00db69002bfbd11a4b83221a76194b5b6a08
:101edc00002b29d0174b5b6afa681000984723e057
:101eec00144b20229b5c5bb2062b1dd1114b202284
:101efc00002199540f4b2122002199540c4b832221
:101f0c001a76c0460a4b5b8b9bb21a0030231340e7
:101f1c00102bf7d1074b5b6a002b05d0054b5b6a86
:101f2c00fa6810009847c046c046bd4604b080bd54
:081f3c000018004214150020fa
:020000040000fa
:101f440080b584b000af8e4b9b7ddbb2002b00d1fb
:101f540012e18c4b9b6afb60894b5b8b9bb21a0032
:101f640002231340022b08d1864b2022ff219954cf
:101f7400844b212202219954b7e0814b5b8b9bb2a5
:101f84001a0001231340012b08d17e4b2022ff218c
:101f940099547c4b212202219954a6e0784b5b8b07
:101fa4009bb21a0004231340042b08d1754b202242
:101fb400ff219954734b21220121995495e0714bcf
:101fc40020229b5c5bb2022b09d003dc002b00d1e6
:101fd4008ae08ae0032b59d0042b14d085e0694ba6
:101fe4001b69002b07d0674b9b889bb2002118000c
:101ff40004f02cfd79e0634b9b889bb2012118000f
:1020040004f024fd71e05f4b9b69bb605d4b1b6971
:10201400ba689a4226d15b4b5b69002b11d0594bad
:102024009b889bb25a00564b01210a435a62c04610
:10203400534bdb69002bfbd1524b202203219954d3
:1020440053e04f4b5a684e4bc02189020a435a60f1
:10205400c0464b4bdb69002bfbd14a4b20220621a7
:10206400995442e0474b9a68bb68d318444a19789c
:102074002823d154bb680133bb60c046404bdb69a5
:10208400002bfbd13f4bba689a612ee03d4bdb69d4
:102094007b603c4b5b69013b7a689a420fd1384bb9
:1020a4005a68374be021c9020a435a60c046344b90
:1020b400db69002bfbd1334b202206219954c04607
:1020c4002f4bdb69002bfbd12d492e4bda687b6843
:1020d400d31828228a5cd2b21a707b6801337b60e1
:1020e400284b7a68da6100e0c046264b20229b5ccc
:1020f4005bb201331cd1234b202200219954204b85
:102104005a681f4bc02189020a435a60c0461c4bbf
:10211400db69002bfbd11a4b83221a76194b5b6abd
:10212400002b29d0174b5b6afa681000984723e00c
:10213400144b20229b5c5bb2062b1dd1114b202239
:10214400002199540f4b2122002199540c4b8322d6
:102154001a76c0460a4b5b8b9bb21a00302313409d
:10216400102bf7d1074b5b6a002b05d0054b5b6a3c
:10217400fa6810009847c046c046bd4604b080bd0a
:0821840000100042401500208c
:020000040000fa
:10218c00f0b5abb000aff860b9607a601a00bb1c58
:10219c001a80fb68002b06d07b68002b03d0bb1c7d
:1021ac001b881f2b02d801235b4205e10023a424ca
:1021bc003a1913603b191b687a68d318f968042222
:1021cc00180005f0dbfe21007b181b6804337a181d
:1021dc0013607b181b685a1c781802601a007b6805
:1021ec009b182c221a700c007b181b687a68d31869
:1021fc0073490422180005f0c1fe21007b181b68ee
:10220c0004337a1813607b181b685a1c79180a60ff
:10221c001a007b689b182c221a70b96814243b197d
:10222c007f22180005f00fff3b197f2200219954e3
:10223c000023a022ba1813601de014217a18a020e4
:10224c003b181b68d3181b780d2b06d07a183b183b
:10225c001b68d3181b780a2b07d11423fa18a02358
:10226c00fb181b68d31800221a70a022bb181b681d
:10227c000133ba18136014243b19180005f0fafd49
:10228c000200a023fb181b689a42d6d84d4a3b1972
:10229c001100180004f09efe03009c22ba18136073
:1022ac0002239822ba18136044e09c23fb181b6885
:1022bc00180005f0dffd030094217a181360a423a5
:1022cc00fb181a687b181b68d3185a1cbb1c1b887c
:1022dc009a4202db02235b426ee0a4243b191b688a
:1022ec007a68d31894257a1912689c26b91909684a
:1022fc00180005f043fe3b191a687b191b68d318ac
:10230c003a1913603b191b685a1c39190a601a00d8
:10231c007b689b182c221a702a4b1900002004f0a1
:10232c0059fe0300ba1913609822bb181b680133bd
:10233c00ba1813609c23fb181b68002b20d0982321
:10234c00fb181b68082bb0dd1ae0bb1c1b88a422f1
:10235c00ba1812689a4202db03235b422ce0a421d8
:10236c007b181b685a1c79180a601a007b689b182a
:10237c002c221a709822bb181b680133ba181360f0
:10238c009823fb181b68082bdfddbb1c1b88a422c1
:10239c00ba1812689a4202db04235b420ce0a421b7
:1023ac007b181b685a1c781802601a007b689b18f3
:1023bc000d221a707b181b681800bd462bb0f0bd9f
:0823cc005032000058320000fd
:020000040000fa
:1023d400f0b5cfb002af0200684b982149008c469b
:1023e400bc4463441a7097256d007c19052004f0e1
:1023f400b5ff030023807b191b88180005f0aafc95
:102404005f4a604b00f0d4f903000c00180021006f
:1024140000225d4b02f08cf903000c00180021002f
:1024240004f053fa021c594b1a6096256d007c196e
:10243400072004f093ff030023807b191b881800f6
:1024440005f088fc4e4a4f4b00f0b2f903000c0033
:102454001800210000224c4b02f06af903000c0022
:102464001800210004f031fa021c494b1a60474b52
:102474001b684849181c02f0eefb031c4649181c53
:1024840003f0f8f9031c4549181c03f0f3f9031c85
:10249400942464003a1913603d4b1b683d49181c91
:1024a40002f0d9fb031c3e49181c03f0e3f9031c9a
:1024b4003c49181c03f0def9031c92256d007a19bf
:1024c400136039493b19186802f0c5fb031c242624
:1024d400ff36bc19181c05f065fb03002370334953
:1024e4007b19186802f0b7fb031c91256d007c1959
:1024f400181c05f057fb030023707b191978bb19ce
:102504001b782b4a0c24381900930b00102105f07a
:10251400f9fc80235b001c257a1939192548fff73b
:1025240033fe03008e225200b9180b60134b98211e
:1025340049008c46bc4463441b78012b07d1bb186b
:102544001a687b191100180002f0cefa12e00b4b46
:10255400982252009446bc4463441b78002b09d152
:102564008e235b00fb181a681c23fb18110018004b
:1025740002f05efac046bd464db0f0bdd7feffff87
:102584006666666666660a4000feaf40081600206e
:102594000c160020002474490040ce440000364349
:1025a40000400345000076430000ff428fc22442ee
:0825b4005c320000f43100006c
:020000040000fa
:1025bc00941500201c0000000000000014150020e1
:1025cc005800000000000000b4140020600000005f
:1025dc0000000000b01500200c00000000000000fe
:1025ec00d41500201800000000000000fc1500208d
:1025fc00040000000000000025160020010000006f
:10260c000000000064130020000100000000000026
:10261c00d215002002000000000000002916002046
:10262c000100000001000000010000000016002065
:10263c000800000000000000261600200100000029
:10264c0000000000c4090020d002000000000000bf
:10265c00721b0020020000000100000003ff0000bc
:10266c0008160020080000000000000000000020f8
:10267c00c409000000000000640f002000040000ea
:10268c0000000000940c0020d002000000000000ac
:10269c00fa1500200200000000000000c815002000
:1026ac000a00000000000000f415002006000000e5
:1026bc0000000000271600200100000000000000b0
:1026cc002c160020400500000200ff0f2a160020e7
:1026dc0002000000010000002a000000701b002016
:1026ec000200000001000000a00200006c15002098
:1026fc002800000000000000ec150020080000007d
:10270c000000000024160020010000000000000062
:10271c002816002001000000000000001016002008
:10272c000c000000000000006c1b002004000000e6
:10273c0001000000010000001c1600200400000035
:10274c000000000064140020500000000000000095
:10275c00201600200400000000000000bc15002022
:10276c000c00000000000000000000000000000051
:020000040000fa
:10277c0008d1002806d1f54204d801d3002a01d192
:10278c006d0d09d10020c143090dc904f0bdf9d16b
:10279c001242f7d1640df5d00020c1434905490818
:1027ac00a6e000206146f0bdf0b50127ff070e0042
:1027bc005e403e40b446be0a4c18dd18f442d7d2f7
:1027cc00f542e4d2640decd06d0dead06419c90267
:1027dc003943460dc0023143db023b43db0a10b4e4
:1027ec008e4685b297b26f43140c6c433e0ca41901
:1027fc00260c2404bfb227439cb26c43a419190cb9
:10280c006943250ca4b249190d04090c6419000c78
:10281c0095b245433e0c76193743bfb2360c150cb6
:10282c004543ad19a6b2240cad192e0437432e0c1a
:10283c0036199db24543ad19acb22e0c89191d0c3d
:10284c0045436d182e04290c3443704680b295b262
:10285c0045433e0c76193743bfb2360c150c454335
:10286c00ad19a6b2ad19240c2e0437432e0c361913
:10287c009db24543ad19acb22e0c89191d0c4543c4
:10288c006d182e043443290c75462d0c90b26843f8
:10289c003e0c80190604bfb23e43070ca0b23f1891
:1028ac00120c6a43d019020c80b2240ca4189ab2f0
:1028bc006a43121914042043120c89181b0c6b4325
:1028cc00c91810bc01273d05294203d1b619404156
:1028dc004941013cff077d0d013d641b0bdb6d0085
:1028ec00ac4209da240500254208be416841614129
:0a28fc0066463143f0bd54e74ee795
:020000040000fa
:10290600b0b582b000af05000c0010001900fb1d29
:102916002a1c1a70bb1d221c1a707b1d021c1a7001
:102926003b1d0a1c1a7005f0cbfa552002f077fe03
:10293600202002f074fefb1d1b78180002f06ffecb
:10294600bb1d1b78180002f06afe7b1d1b78180061
:1029560002f065fe3b1d1b78180002f060fe18238e
:10296600fb181b78180002f05afe1c23fb181b7874
:10297600180002f054fe2023fb181b78180002f002
:102986004efe2423fb181b78180002f048fe28236d
:10299600fb181b78180002f042fe2c23fb181b784c
:1029a600180002f03cfe3023fb181b78180002f0da
:1029b60036fe3423fb181b78180002f030fe202365
:1029c60018229446bc4463441b78180002f027fe84
:1029d600242318229446bc4463441b78180002f052
:1029e6001efe282318229446bc4463441b78180014
:1029f60002f015fe2c2318229446bc4463441b782f
:102a0600180002f00cfe302318229446bc4463449e
:102a16001b78180002f003fe342318229446bc44a7
:102a260063441b78180002f0fafd382318229446f6
:102a3600bc4463441b78180002f0f1fd3c231822c5
:102a46009446bc4463441b78180002f0e8fd40231a
:102a560018229446bc4463441b78180002f0dffd3c
:102a6600442318229446bc4463441b78180002f0a1
:0e2a7600d6fd04f0b6fec046bd4602b0b0bdaf
:020000040000fa
:102a8400b0b588b000af05000c0010001900fb1da4
:102a94002a1c1a70bb1d221c1a707b1d021c1a7082
:102aa4003b1d0a1c1a7005f00cfa552002f0b8fd03
:102ab400202002f0b5fd08217b18fa1d12781a7047
:102ac4007b18ba1d12785a707b187a1d12789a7086
:102ad4007b183a1d1278da707b183022ba181278f3
:102ae4001a717b183422ba1812785a717b1838225a
:102af400ba1812789a717b183c22ba181278da71d3
:102b04007b184022ba1812781a727b184422ba1819
:102b140012785a727b184822ba1812789a727b1863
:102b24004c22ba181278da727b182022302084469c
:102b3400bc44624412781a737b18242230208446e1
:102b4400bc44624412785a737b182822302084468d
:102b5400bc44624412789a737b182c223020844639
:102b6400bc4462441278da737b18302230208446e5
:102b7400bc44624412781a747b1834223020844690
:102b8400bc44624412785a747b183822302084463c
:102b9400bc44624412789a747b183c2230218c46df
:102ba400bc4462441278da740023fb610ae008230f
:102bb400fa18fb69d3181b78180002f031fdfb6981
:102bc4000133fb61fb69132bf1dd04f00bfec046fe
:062bd400bd4608b0b0bdd3
:020000040000fa
:022bda00704742
:020000040000fa
:102bdc00f0b58bb000af0200bb1d1a8026257c1906
:102bec00052004f0b7fb030023807b191b88180019
:102bfc0004f031ff031c3e49181c02f028f8031c9a
:102c0c008b21c905181c02f031fe031c3b621e25ea
:102c1c007c19072004f09efb030023807b191b8882
:102c2c00180004f018ff031c3149181c02f00ff8af
:102c3c00031c8b21c905181c02f018fe031cbb6178
:102c4c002c49386a02f003f8031c2b49181c02f0bb
:102c5c000dfe031c2949181c02f008fe031c7b61a5
:102c6c002449b86901f0f3ff031c2549181c02f034
:102c7c00fdfd031c2349181c02f0f8fd031c3b61ed
:102c8c002149786901f0e3ff031c0e257c19181cff
:102c9c0004f084ff030023801c49386901f0d7ff3e
:102cac00031c0c26bc19181c04f078ff03002380ad
:102cbc00bb1d1b88d4225201944663445b001a004e
:102ccc007b191b881900100004f024fabb1d1b880b
:102cdc00c0225201944663445b001a00bb191b8846
:102cec001900100004f016fac046bd460bb0f0bd3a
:102cfc0033335340002474490040ce440000364323
:102d0c00004003450000764300ffff46f66c254665
:020000040000fa
:102d1c00f0b58fb00d934b680c9006938b680d003b
:102d2c000793cb6816000393069b0f68002b44dbbc
:102d3c0002239f4310233b400a93079b04930a9b57
:102d4c00002b07d0726833681343079a02d0130024
:102d5c00023b049308233b400b935a1e9341049a65
:102d6c00d31a04933368039a0893736809932b69f5
:102d7c005c1e00231355069b0593012c20dc0a9b3b
:102d8c00002b51d10b9b002b03d02023039a013c29
:102d9c0013552b6900975a1e039b121b19190c987b
:102dac00079b03f08df80c9b5b68db0503d56b6808
:102dbc00984200da18000fb0f0bd01230693b9e772
:102dcc00089b099a13430bd1059b002b08dc069a30
:102ddc00049b9b1a059a9b18002bd0ddbb07ced504
:102dec000f23089a013c134018005730092b01dcc3
:102dfc00303318000d9b413b192b06d8202303437d
:102e0c00613b192b01d805f017f9039b1855059b4d
:102e1c00013b0593099b1a07089b1b091a43099b45
:102e2c0008921b090993a8e70cce1343aad0039b65
:102e3c000d9a1b19013b1a703023039a023c13554f
:022e4c00a0e7fd
:020000040000fa
:022e4e007047cb
:020000040000fa
:102e500090b5c7b000af0200424b8c2149008c46b0
:102e6000bc4463441a70404b882149007a181360af
:102e700080235b0008243a19791809683b48fff75a
:102e800085f9030086225200b9180b60354b8c215e
:102e900049008c46bc4463441b78012b07d1bb1806
:102ea0001a683b191100180001f020fe12e02d4baa
:102eb0008c2252009446bc4463441b78002b09d1f9
:102ec00086235b00fb181a680823fb181100180002
:102ed00001f0b0fd00238a2040003a1813600c2155
:102ee000ff317b18224a52791a700a00bb181b78ee
:102ef0002f2b08d9bb181b78392b04d8bb181b788b
:102f0000303b3a1813608a225200bb181b68062b0c
:102f100022d8bb181b689a00164bd3181b689f4613
:102f2000154b04221a7018e0134b01221a7014e09a
:102f3000114b02221a7010e00f4b03221a700ce0a2
:102f40000d4b00221a7008e00b4b05221a7004e0aa
:102f5000094b06221a7000e0c046c046bd4647b085
:102f600090bdc046effeffff10320000dc310000d4
:0c2f700064130020e87c0000721b0020ad
:020000040000fa
:102f7c00f0b53a4ca54402af0200394b8221c9008e
:102f8c008c46bc4463441a70364b8222d200944661
:102f9c00bc446344180080235b001a00002104f039
:102fac00f7ff80235a00c225ad007b1911001800d1
:102fbc0000f0fafd2c4b2d4c3a1913602c4b82224d
:102fcc00d2009446bc446344180080239b001a0032
:102fdc00002104f0ddff3b191c68264a8023990070
:102fec0084267600b8197b190093230004f086ff21
:102ffc0080235b0008243a19b9191f48fff7c0f861
:10300c0003008122d200b9180b60154b8221c90034
:10301c008c46bc4463441b78012b07d1bb181a683f
:10302c003b191100180001f05bfd12e00c4b8222e1
:10303c00d2009446bc4463441b78002b09d18123f5
:10304c00db00fb181a680823fb181100180001f0ac
:10305c00ebfcc046bd46094b9d44f0bde4fbffffb5
:10306c00f7fbfffff8feffff103200000c0400001e
:10307c00f8fcffff24320000c431000014040000ef
:020000040000fa
:10308c0080b588b000af0200fb1d1a700823fb1836
:10309c0000221a601a713c4b2c21180004f082ff9c
:1030ac000300fb61fb69002b00d168e0fb69013375
:1030bc00fb610023bb611de0fb691b78002b1dd05d
:1030cc00fb691b78303bd9b20823fa18bb69d318bb
:1030dc000a1c1a70fb692c21180004f063ff030012
:1030ec00fb61fb69002b0bd0fb690133fb61bb69f6
:1030fc000133bb61bb69042bdedd02e0c04600e09e
:10310c00c0460823fb181b78012b19d1fdf732fca4
:10311c0003007b61fb1d1b78012b06d17a691b4bcd
:10312c001100180001f0dcfc2ae0fb1d1b78002bc1
:10313c0026d17a69154b1100180001f075fc1fe0bf
:10314c000823fb18db78012b1ad1fdf757ff03007e
:10315c003b61fb1d1b78012b06d13a690b4b11000f
:10316c00180001f0bdfc0be0fb1d1b78002b07d1f8
:10317c003a69064b1100180001f056fc00e0c046fd
:10318c00bd4608b080bdc04664130020000000207e
:020000040000fa
:10319c00444c44520000c046534c45500000c046bd
:1031ac00574b55500000c046434b41560000c0469b
:1031bc005354534e0000c0464754534e0000c04673
:1031cc00535441530000c046475441530000c0467d
:1031dc00435450540000c046474454430000c0467a
:1031ec00455244430000c046434b50430000c04688
:1031fc00444c43520000c046444c45520000c0466b
:10320c00444c44520000c046424d575f4331333466
:10321c005f59312e312e3000257325730000c046c6
:10322c003000c0463100c0463200c046253034580c
:10323c000000c04625732c257300c0462c4f4b3024
:10324c00302c00004f4b30300000c0462c00c046e4
:10325c00253032582c2530325800c046444c43524d
:10326c002c4f4b30302c0000444c45522c4f4b30e3
:10327c00302c00002c2c2c002c2c2c312c00c0467b
:10328c00444c45522c4f4b30302c2c2c2c00c0462f
:08329c002c2c2c302c00c04644
:020000040000fa
:1032a40080b582b000af3e4b9b7ddbb2002b00d1da
:1032b40071e03b4b1b7edbb21a0080231a40fb1dde
:1032c400803a51424a411a70354b9b7ddbb21a0059
:1032d40080231340802b05d1fb1d1b78002b01d0cc
:1032e400012200e00022fb1d1a701a7801210a4015
:1032f4001a70fb1d1b78002b01d003f0d7fb284b61
:103304001b7edbb21a0001231a40fb1d013a514215
:103314004a411a70224b9b7ddbb21a0001231340f1
:10332400012b05d1fb1d1b78002b01d0012200e0ed
:103334000022fb1d1a701a7801210a401a70fb1d25
:103344001b78002b01d000f033fa154b1b7edbb247
:103354001a0004231a40fb1d043a51424a411a70d0
:103364000f4b9b7ddbb21a0004231340042b05d1c1
:10337400fb1d1b78002b01d0012200e00022fb1d65
:103384001a701a7801210a401a70fb1d1b78002b51
:1033940001d001f015fdc046bd4602b080bdc04657
:0433a400000c0042d7
:020000040000fa
:1033a80080b582b000af3e4b9b7ddbb2002b00d1d5
:1033b80071e03b4b1b7edbb21a0080231a40fb1dd9
:1033c800803a51424a411a70354b9b7ddbb21a0054
:1033d80080231340802b05d1fb1d1b78002b01d0c7
:1033e800012200e00022fb1d1a701a7801210a4010
:1033f8001a70fb1d1b78002b01d003f085fb284bae
:103408001b7edbb21a0001231a40fb1d013a514210
:103418004a411a70224b9b7ddbb21a0001231340ec
:10342800012b05d1fb1d1b78002b01d0012200e0e8
:103438000022fb1d1a701a7801210a401a70fb1d20
:103448001b78002b01d000f031fa154b1b7edbb244
:103458001a0004231a40fb1d043a51424a411a70cb
:103468000f4b9b7ddbb21a0004231340042b05d1bc
:10347800fb1d1b78002b01d0012200e00022fb1d60
:103488001a701a7801210a401a70fb1d1b78002b4c
:1034980001d001f0ebfcc046bd4602b080bdc0467d
:0434a80000080042d6
:020000040000fa
:1034ac0080b584b000af0200fb1d1a70bb1d0a1c56
:1034bc001a700e23fb186b221a700d23fb186b224b
:1034cc001a700f23fb1800221a700ae00f203b1809
:1034dc001b78334a0021d1543b181a783b1801321f
:1034ec001a700f23fa18bb1d12781b789a42edd371
:1034fc0008217b18ff221a707b1800225a70c046d4
:10350c000e23fb181b789bb20822b9180222180054
:10351c0004f0c6f803001a0001235340dbb2002b61
:10352c00eed1c04603f0f4fe031efbd10823fb18ba
:10353c00fa1d12781a70c0460e23fb181b789bb22a
:10354c000822b9180122180004f0aaf803001a0086
:10355c0001235340dbb2002beed1c04603f0d8fe62
:10356c00031efbd1c0460d23fb181b7898b2bb1d64
:10357c001a780b4b190004f023f803001a000123ee
:10358c005340dbb2002beed1c04603f0c1fe031e4c
:10359c00fbd10a2002f0d2fcc046bd4604b080bd6f
:0435ac00c81500201e
:020000040000fa
:1035b00090b58bb000aff86008007a6019000a245b
:1035c0003b19021c1a8008203b180a1c1a80384b31
:1035d000fb610a23bb6107237b6100237b62bb6b1a
:1035e000002b11d03b191a88bb69d3185a1c3b1801
:1035f0001b88d2187b69d218342308218c46bc441e
:1036000063441b889a4202db01235b424ce07b6ae5
:10361000ba6bd318ba69f969180004f0b5fc7a6a74
:10362000bb69d3187b627b6aba6bd0180a243b193a
:103630001a88fb68190004f0a7fc3b191b887a6afa
:10364000d3187b627b6a5a1c7a621a00bb6b9b1888
:103650002c221a707b6aba6bd01808243b191a887e
:103660007b68190004f090fc3b191b887a6ad31818
:103670007b6200233b620ae07b6a5a1c7a621a0072
:10368000bb6b9b182c221a703b6a01333b623a6a6f
:103690007b699a42f0db7b6a5a1c7a621a00bb6b28
:1036a0009b180d221a707b6a1800bd460bb090bda6
:0436b000683200007c
:020000040000fa
:1036b40080b500af02f0daff03f0f4fe04f030f955
:1036c40004f042f9374ad0234021d150c046354a4c
:1036d400d023d35840221340402bf8d1314ad4236d
:1036e4004021d150c0462f4ad423d35840221340fe
:1036f400402bf8d12b4ad8234021d150c046294a27
:10370400d823d35840221340402bf8d1254ae42330
:103714004021d150c046234ae423d35840221340c9
:10372400402bf8d11f4afc234121d150c0461d4ae9
:10373400fc23d35840221340402bf8d1194a80234c
:103744005b004121d150c046164a80235b00d35808
:1037540040221340402bf7d1124a82235b004021c0
:10376400d150c0460f4a82235b00d35840221340f5
:10377400402bf7d10b4a96235b004121d150c04620
:10378400084a96235b00d35840221340402bf7d1bc
:10379400054b064ada61044b04221a62c046bd4650
:1037a40080bdc046001c0040000800405c8003004f
:020000040000fa
:1037b40080b584b000af3c4b1b7ddbb2002b6ed0d8
:1037c400394b9b68bb60384b5a680e23fb18b968a9
:1037d4009142924152421a70344b1b7edbb21a0062
:1037e40001231a400f23fb18013a51424a411a702f
:1037f4002ee02e4b5b6807221340012b08d02a4b86
:103804001a68bb68d3181a78284b92b21a8507e055
:10381400254b1a68bb685b00d318244a1b881385a0
:10382400bb680133bb60204b5a680e23fb18b96890
:103834009142924152421a701c4b1b7edbb21a0019
:1038440001231a400f23fb18013a51424a411a70ce
:103854000f23fb181b78002b04d00e23fb181b78b6
:10386400002bc6d1104bba689a600f4b5b68ba68dc
:103874009a4214d30c4b00221a750b4b00225a6047
:103884000a4b01221a75084bdb68002b07d0064b44
:103894001b697b60044bdb687a6810009847c0465c
:1038a400bd4604b080bdc046b4140020000c0042e4
:020000040000fa
:1038b40080b584b000af3c4b1b7ddbb2002b6ed0d7
:1038c400394b9b68bb60384b5a680e23fb18b968a8
:1038d4009142924152421a70344b1b7edbb21a0061
:1038e40001231a400f23fb18013a51424a411a702e
:1038f4002ee02e4b5b6807221340012b08d02a4b85
:103904001a68bb68d3181a78284b92b21a8507e054
:10391400254b1a68bb685b00d318244a1b8813859f
:10392400bb680133bb60204b5a680e23fb18b9688f
:103934009142924152421a701c4b1b7edbb21a0018
:1039440001231a400f23fb18013a51424a411a70cd
:103954000f23fb181b78002b04d00e23fb181b78b5
:10396400002bc6d1104bba689a600f4b5b68ba68db
:103974009a4214d30c4b00221a750b4b00225a6046
:103984000a4b01221a75084bdb68002b07d0064b43
:103994001b697b60044bdb687a6810009847c0465b
:1039a400bd4604b080bdc046e414002000080042b7
:020000040000fa
:1039b40080b582b000af0200fb1d1a7004f0f2f96a
:1039c400a321032003f00cfd354b00221a6004e010
:1039d400344b1b78dbb2012b56d0314b1b68bd2b0b
:1039e400f6d904f0d3f92e4b00221a601ae0fb1d1d
:1039f4001b78002b11d02a4b1b68b42b0dd12a4bfa
:103a04001b689bb21800fff7e7f8b4239a00274914
:103a1400c0239b01180001f07dfc224b1b78dbb214
:103a2400012b33d01e4b1b68bd2be0d904f0c6f923
:103a34001b4b00221a6004e01a4b1b78dbb2012beb
:103a440026d0174b1b68bd2bf6d904f0c3f9144bd1
:103a540000221a6004e0134b1b78dbb2012b19d04f
:103a64000f4b1b68c22bf6d904f0c0f90c4b002293
:103a74001a6004e00b4b1b78dbb2012b0cd0084b13
:103a84001b68bd2bf6d908e0c04606e0c04604e03a
:103a9400c04602e0c04600e0c046bd4602b080bd5c
:103aa4000016002026160020fc150020c409002062
:020000040000fa
:103ab400b0b5eab002af0200384bd02149008c46c1
:103ac400bc4463441a70a025ff357c1901f068f8e2
:103ad4000300237002f05efd031e06d07b197a19e1
:103ae400127820210a431a7007e0a022ff32bb1883
:103af400ba18127820218a431a70a023ff33fb18c6
:103b04001b78274ac62464003819052104f0faf901
:103b1400244bcc225200b9180b60bb181968224af6
:103b24000c2578193b1900930b00802104f0eaf965
:103b340080235b008c243a1979191c48fef724fb76
:103b44000300ca225200b9180b60144bd02149005b
:103b54008c46bc4463441b78012b07d1bb181a68fc
:103b64003b191100180000f0bfff12e00b4bd022ec
:103b740052009446bc4463441b78002b09d1ca23e9
:103b84005b00fb181a688c23fb181100180000f066
:103b94004fffc046bd4668b0b0bdc04667feffffdc
:103ba400383200001032000040320000e4310000de
:020000040000fa
:103bb40090b5c5b000af78600a003a4b882149003f
:103bc4008c46bc4463441a807b68002b66d0354b1a
:103bd400882252009446bc4463441b88002b5dd069
:103be400314b882252009446bc446344180080231d
:103bf4005b001a00002104f0cff980235a000c2343
:103c0400f91880235b01180001f084fb87235b0013
:103c1400fb1800221a802ae0872040003b181b88ea
:103c2400214a882149008c46bc446244d35c002b61
:103c34002bd03b181b881c4a882149008c46bc4465
:103c44006244d35cff2b20d03b181a883b181b8896
:103c54007968cb18144988246400a446bc446144a0
:103c64008a5c1a703b181a883b1801321a80872321
:103c74005b00fb181a880b4b882149008c46bc4416
:103c840063441b88013b9a42c6db87235b00fb1815
:103c94001b887a68d31800221a7000e0c046bd461b
:0c3ca40045b090bdf2fefffffcfeffffec
:020000040000fa
:103cb00090b5c7b000af0200364b8c2149008c464e
:103cc000bc4463441a7000238a2040003a181360f1
:103cd0001421ff317b18304a52791a700a00bb1840
:103ce0001b782f2b08d9bb181b78392b04d8bb188d
:103cf0001b78303b3a1813608a225200bb181b68ad
:103d0000002b04d0bb181b68012b04d007e0234b09
:103d100000221a7003e0214b01221a70c046204b8a
:103d2000862149007a18136080235b0008243a1921
:103d3000791809681b48fef729fa0300842252000b
:103d4000b9180b60134b8c2149008c46bc4463446a
:103d50001b78012b07d1bb181a683b1911001800fa
:103d600000f0c4fe12e00b4b8c2252009446bc447f
:103d700063441b78002b09d184235b00fb181a686d
:103d80000823fb181100180000f054fec046bd4681
:103d900047b090bdeffeffff641300202616002001
:083da00010320000cc310000dc
:020000040000fa
:103da80090b585b000af786039600e217b18384a2d
:103db80012881a807b181a88b4235b009a4203d9a8
:103dc8007b18b42252001a80b4239a00314b002188
:103dd800180004f0dff80e243b191b88db189ab290
:103de8002c497b68180001f093fa3b6801221a708d
:103df8003b68013321007a181288d2b21a707b18f6
:103e08001b881b0a9ab23b680233d2b21a703b680d
:103e1800d81c7b181b885b001a001e4b190004f085
:103e2800aff80d23fb1800221a700a23fb18002292
:103e38001a800fe00a203b181b88164ad15c0d2215
:103e4800bb18ba1812788a181a703b181a883b18c7
:103e580001321a800a23fb181a880e217b181b8846
:103e68005b009a42e6db7b181b885b0003331a0071
:103e78003b689b180d22ba1812781a707b181b8899
:103e880002339bb2db189bb21800bd4605b090bd4b
:083e9800fc150020940c002031
:020000040000fa
:103ea00080b590b010af334b1b88dbb2013bd9b269
:103eb00020230f9302230e93fe230d9303230c93d1
:103ec00047230b9342230a93232309930023089348
:103ed000812307930f2306933e2305930023049326
:103ee0008f23039300230293002301930023009365
:103ef000752300220420fef7c5fd32e01e4b002290
:103f00001a701e4b1b785ab21d4b1b785bb29a423b
:103f100024d01a4b1b785bb2062b19d89a00194b88
:103f2000d3181b689f4603f033ff12e003f06cffc9
:103f30000fe003f075ff0ce003f07eff09e003f0f3
:103f400033ff06e003f090ff03e003f081ff00e0a1
:103f5000c0460a4b1b785ab2094b1a70322001f046
:103f6000f3ff094b1b78dbb2012bc7d0c046bd461f
:103f700080bdc0462a16002028160020721b002093
:0c3f8000731b0020cc7c000026160020e3
:020000040000fa
:103f8c0090b5c5b000af0200304b882149008c467b
:103f9c00bc4463441a702e4b86225200b9180b6035
:103fac002c4b1b78dbb2002b03d12b4bba181360b4
:103fbc0014e0284b1b78dbb2012b05d1274b862252
:103fcc005200ba18136009e0224b1b78dbb2022bab
:103fdc0004d1234b86225200ba18136080235b0055
:103fec0008243a1986214900791809681d48fef7fa
:103ffc00c7f8030084225200b9180b60134b8821b8
:10400c0049008c46bc4463441b78012b07d1bb1878
:10401c001a683b191100180000f062fd12e00b4bfe
:10402c00882252009446bc4463441b78002b09d16f
:10403c0084235b00fb181a680823fb181100180076
:10404c0000f0f2fcc046bd4645b090bdf7feffff48
:10405c0010320000261600202c32000030320000f6
:08406c0034320000d4310000e1
:020000040000fa
:10407400b0b586b002af78603960324b1b78dbb2e2
:1040840001225340dbb2002b2fd00e23fb18002259
:104094001a8020e00e243b191b885b007a68d31831
:1040a4001b88180003f0dbfc031c3968181c00f0a3
:1040b400d2fd031c1a1c25003b191c88101c03f09c
:1040c40071fd030099b2204b6200d1527b191a880a
:1040d4007b1901321a801d4b1b880e22ba181288d4
:1040e4009a42d7d3174b01221a70194b1b88dbb2a3
:1040f400013bdab2154b1b88009313000022002108
:10410400002000f027f8002300220021002002f004
:1041140077fa0f4b1b88dbb2013bdab20b4b1b88df
:104124000093130000220021002000f013f8002364
:1041340000220021002002f063fac046bd4604b00c
:10414400b0bdc046281600202c160020701b00208d
:044154002a16002007
:020000040000fa
:10415800b0b584b000af05000c0010001900fb1dbd
:104168002a1c1a70bb1d221c1a707b1d021c1a7097
:104178003b1d0a1c1a700e23fb182022ba1812883d
:104188001a8003f09cfe552001f048fa602001f0e7
:1041980045fafb1d1b78180001f040fabb1d1b787f
:1041a800180001f03bfa7b1d1b78180001f036fa65
:1041b8003b1d1b78180001f031fa29e020203b183c
:1041c8001a880e217b181b88d21a174b5200d35a13
:1041d8001b0a9bb2dab2154b1a703b181a880c00ee
:1041e8007b181b88d21a104b5200d35adab20f4be5
:1041f8005a700e4b1b78180001f010fa0b4b5b78c5
:10420800180001f00bfa3b191a883b19013a1a8079
:104218000e23fb181b88002bd0d103f0e1fac0460f
:10422800bd4604b0b0bdc0462c1600206c15002059
:020000040000fa
:1042380090b583b000af02003960fb1d1a70fb1dfa
:104248001b787f2b28d82f4afb1d1b785bb29b0855
:10425800c0339b009b58fa1d1278110003220a40b4
:10426800d200ff2191400a00d2431a4011003b6856
:104278009b01ff221a40fb1d1b78180003230340f3
:10428800db009a401f48fb1d1b785bb29b080a4362
:10429800c0339b001a5031e01b4afb1d1b781900e4
:1042a8000f230b40083b9b0806339b00d3180433ad
:1042b8001b68fa1d1278110003220a40d200ff2160
:1042c80091400a00d2431a4011003b689b01ff222b
:1042d8001a40fb1d1b78180003230340db009a409b
:1042e8000948fb1d1b781c000f232340083b9b0833
:1042f8000a4306339b00c31804331a60c046bd4600
:0c43080003b090bd00e100e000ed00e01b
:020000040000fa
:1043140090b5c5b000af0200304b882149008c46ef
:10432400bc4463441a70002002f008fa80239b0105
:10433400180002f003fac0239b01180002f0fef9f2
:10434400d4239b01180002f0f9f98023db01180043
:1043540002f0f4f9a023db01180002f0eff9204b7e
:1043640000221a801f4b862149007a18136080238b
:104374005b0008243a19791809681b48fdf704ff03
:10438400030084225200b9180b60144b88214900a1
:104394008c46bc4463441b78012b07d1bb181a68b4
:1043a4003b191100180000f09ffb12e00b4b882210
:1043b40052009446bc4463441b78002b09d18423e7
:1043c4005b00fb181a680823fb181100180000f0a2
:1043d4002ffbc046bd4645b090bdc046f7feffff6b
:0c43e400fc15002010320000ec3100003d
:020000040000fa
:1043f000b0b584b000af78600a00fb1c1a700f23c0
:10440000fb1800221a700ae00f203b181b782e4a76
:104410000021d1543b181a783b1801321a700f232f
:10442000fb181b78092befd903f0ecf8902001f072
:1044300012f87b68dbb2180001f00df87b681b0aec
:10444000dbb2180001f007f87b681b0cdbb2180028
:1044500001f001f87b681b0edbb2180000f0fbffd7
:10446000082000f0f8ff03f0e9f8142001f0a8fd9f
:1044700003f0c8f8912000f0eeff0e23fb18002295
:104480001a7010e00e257b191c7801f099fb0300cf
:104490001a000d4b1a55642001f092fd7b191a7811
:1044a0007b1901321a700e23fa18fb1c12781b7844
:1044b0009a42e7d303f0c2f80a2001f081fdc0461a
:0c44c000bd4604b0b0bdc046c8150020c9
:020000040000fa
:1044cc0090b583b000af8223da058c235b0080218a
:1044dc004905d150294b00221a7003f00dfc002025
:1044ec00fff762fa264b1b78dbb2012b3dd0012083
:1044fc00fff75afa224b1b78dbb2012b37d0002185
:10450c00032002f069ff03f049fc03f003fcfc1ddf
:10451c0000f042fb030023701a4b1a68fb1d1b783a
:10452c001900100001f0fcff03f0a0f903f0eef805
:10453c00144b1b685a1c134b1a6001f003fc8223aa
:10454c00da058a235b0080214905d1500e4b0022ed
:10455c001a6004e00a4b1b78dbb2012b09d00a4b22
:10456c001b680a4a9342f5d904e0c04602e0c046f3
:10457c0000e0c046bd4603b090bdc04628160020e2
:10458c0026160020fc1500200016002083030000d6
:020000040000fa
:10459c0090b5c7b000af02002d4b8c2149008c4662
:1045ac00bc4463441a702b4b180001f07bfa0300d7
:1045bc008a225200b9180b60bb181b68002b42d022
:1045cc00254b882149007a18136080235b000c244a
:1045dc003a19791809682148fdf7d2fd03008622a3
:1045ec005200b9180b601a4b8c2149008c46bc4404
:1045fc0063441b78012b07d1bb181a683b191100b7
:10460c00180000f06dfa12e0114b8c225200944607
:10461c00bc4463441b78002b09d186235b00fb1838
:10462c001a680c23fb181100180000f0fdf98a24fd
:10463c0064003b191b68180002f022fb3b191b6835
:10464c00180002f0ebfec046bd4647b090bdc04618
:10465c00effeffff6413002010320000bc3100009d
:020000040000fa
:10466c00f0b52b4ca54402af02002a4b84218900e3
:10467c008c46bc4463441a70b4235a00264b190070
:10468c00002000f043fe254b842292009446bc444b
:10469c006344234a12681a60224ebc190c23fd187d
:1046ac00b4235a001c490820381880239b0000931f
:1046bc002b00fcf711fe03002380164b8422920082
:1046cc009446bc4463441b78012b08d1bb191a884f
:1046dc000c23fb181100180000f002fa11e00d4b2e
:1046ec00842292009446bc4463441b78002b08d16e
:1046fc000c4bfb181a880c23fb181100180000f047
:10470c0093f9c046bd4685239b009d44f0bdc04631
:10471c00e4fdfffff7fdffffc4090020f8fdffffdc
:08472c000c3200000e02000037
:020000040000fa
:10473400f0b40125ed070c005c402c40a446ae0a01
:104744004c18df18f4423dd2f74245d2640d4cd0e8
:104754007f0d3cd0e41bc9022943cf0adb022b4363
:10476400db0a0600b61a9f4104d2013cb6197f4108
:10477400b6185f416812800d241838dd0018844291
:1047840025d8e80c0021b6197f41b61a9f4103d3fe
:1047940040414941f7d304e0b6185f41001849414c
:1047a400f1d32405b6197f41b61a9f4105d3374387
:1047b400c20717430022012f504161416246114351
:1047c400f0bc70470cd100280ad1f74208d200206f
:1047d400c143490d0905f1e7002a01d1f74206d08a
:1047e4000020c143090dc904eae77f0df8d0002079
:0447f4006146e5e74e
:020000040000fa
:1047f800f0b587b002af0200fb1d1a7080239a0043
:10480800274b0021180003f0c5fb80239a00254b95
:104818000021180003f0befb0e257c19204ad42382
:104828009b0111001800fff7bbfa030023800c2638
:10483800bc191c4ac0239b0111001800fff7b0faed
:10484800030023807b191c88154abb191988154851
:10485800154b0193154b00932300fef7a5fe0300ab
:10486800bb60ba68114b1100180000f0dff8fb1d9f
:104878001b78012b06d1ba680c4b1100180000f008
:1048880031f909e0fb1d1b78002b05d1ba68074bed
:104898001100180000f0caf8c046bd4605b0f0bdca
:1048a800640f002064110020c409000000000020eb
:020000040000fa
:1048b80010b588293cd015dc81294dd003dc80292e
:1048c8004ad0002010bd822911d08429f9d1196855
:1048d800002a26d00a1d1a6000228b5e0360db17af
:1048e800436011e0a02930d010dc9029e9d1196883
:1048f8000724002a2ed00919a1430a0008321a6099
:104908000b684c68036044600120dbe7c02901d0d4
:10491800f029d6d11a68111d1960136803600023a5
:10492800dee70c1d1c600b689bb203604260ebe77e
:104938001968002a04d00a1d1a600023cb56cde757
:104948000c1d1c600b68dbb2efe71a68111d1960bb
:104958001368c3e70731cfe71968002a03d00a1d97
:0e4968001a600b68bae70c1d1c600b68dde7d7
:020000040000fa
:02497600704788
:020000040000fa
:1049780090b583b000af78607b68082200211800ea
:1049880003f008fb214b1800fcf744ff03001a0052
:104998007b681a707b685c1c1d4b1800fcf73aff9b
:1049a800030023707b689c1c1a4b1800fcf732ff2d
:1049b800030023707b68dc1c174b1800fcf72affe8
:1049c800030023707b681c1d144b1800fcf722ffa2
:1049d800030023707b685c1d114b1800fcf71aff5d
:1049e800030023707b689c1d0e4b1800fcf712ff18
:1049f800030023707b68dc1d0b4b1800fcf70affd3
:104a080003002370c046bd4603b090bd8821005006
:104a18008c2100505c210050582200506422005024
:0c4a2800682200505c220050600000502a
:020000040000fa
:104a340080b586b000af786039601723fb18002278
:104a44001a7000233b617b68002b42d0244b1b7df2
:104a5400dbb201225340dbb2002b3ad0204b7a6800
:104a64001a601f4b3a685a601d4b01221a751c4b81
:104a74005b68fb6017e01b4b5b6807221340012b4c
:104a840007d07a683b69d3181a78164b92b21a8504
:104a940006e03b695b007a68d318124a1b881385c9
:104aa4003b6901333b610f4b1b7edbb21a000123d0
:104ab4001340012b03d13a69fb689a42dbd3084bbc
:104ac4003a699a60074b01229a751723fb18012251
:104ad4001a701723fb181b781800bd4606b080bd5a
:084ae400b4140020000c004294
:020000040000fa
:104aec0080b586b000af786039601723fb180022c0
:104afc001a7000233b617b68002b42d0244b1b7d3a
:104b0c00dbb201225340dbb2002b3ad0204b7a6847
:104b1c001a601f4b3a685a601d4b01221a751c4bc8
:104b2c005b68fb6017e01b4b5b6807221340012b93
:104b3c0007d07a683b69d3181a78164b92b21a854b
:104b4c0006e03b695b007a68d318124a1b88138510
:104b5c003b6901333b610f4b1b7edbb21a00012317
:104b6c001340012b03d13a69fb689a42dbd3084b03
:104b7c003a699a60074b01229a751723fb18012298
:104b8c001a701723fb181b781800bd4606b080bda1
:084b9c00e414002000080042af
:020000040000fa
:104ba40080b582b000af8223db051b6a01221a4064
:104bb400fb1d511e8a411a708223db051b6a5b08a8
:104bc40001221a40bb1d511e8a411a708223da0544
:104bd40090235b00d35801221a407b1d511e8a4149
:104be4001a708223da0590235b00d3589b0e0122ae
:104bf4001a403b1d511e8a411a708223db05a022f4
:104c04009b589b0b01221a40fb1c511e8a411a70af
:104c1400fb1c1b781b015ab23b1d1b78db005bb2eb
:104c240013435ab27b1d1b789b005bb213435ab2e9
:104c3400bb1d1b785b005bb213435ab2fb1d1b7890
:104c44005bb213435ab2bb1c1a70bb1c1b7818000e
:064c5400bd4602b080bd68
:020000040000fa
:104c5a0030b405004d400124e407254042004b00d2
:104c6a00120e32d01b0e3cd0ff2a33d0ff2b3fd07e
:104c7a00d21800022043000a09022143090ac4b2d9
:104c8a004c43000ac3b24b43000a4843210a5b184b
:104c9a00190a091801d44900013a080a7f3a2adb9d
:104caa00fe2a0fd2d2051c43240601d00124214337
:104cba00c9b280295041802901d1400840002843c7
:104cca0030bc7047ff20c005f9e71b0eff2b0ad046
:104cda002800f5e7400206d1ff2bf3d1490202d1a1
:104cea00f0e7ff2af4d17f2000010c300005e7e746
:104cfa004902f8d1e6e743020132e9d15b120233f5
:064d0a00e6d9d805e4e73c
:020000040000fa
:104d100080b582b000af786008001100fb1c021c57
:104d20001a70bb1c0a1c1a70224bc2221a707b68b4
:104d30001b0adab21f4b5a707b68dab21d4b9a70ad
:104d40001c4bfa1c1278da701a4bba1c12781a71c2
:104d5000184b05211800fcf799fe03001a00164baa
:104d60001a70154b1a78134b5a71c046134b1b78a7
:104d7000dbb201225340dbb2002bf7d10f4b0022f4
:104d80001a70c04602f0cafa031efbd10c4b052272
:104d90001900612002f08afcc046084b1b78dbb288
:104da00001225340dbb2002bf7d1c046bd4602b012
:104db00080bdc046f41500202716002029160020cb
:044dc000f5150020c5
:020000040000fa
:104dc40080b584b000af284b2c229b5cdbb2002b57
:104dd40046d0254bdb69fb60234b1b6afa689a4279
:104de4003ed9214b9b6abb60204abb1d128d1a80a1
:104df4001d4b1b6a3b601d4b5b6807221340012b54
:104e040008d0194b9a693b68d318ba1d1288d2b2dc
:104e14001a7007e0144b9a693b685b00d318ba1dfb
:104e240012881a803b6801333b600f4b3a681a6260
:104e34000d4bdb693a689a4212d10b4b2c220021ac
:104e44009954094b0022da61084b84221a75064be7
:104e54005b6a002b04d0044b5b6aba681000984765
:104e6400c046bd4604b080bdb4140020000c00420e
:020000040000fa
:104e740080b584b000af284b2c229b5cdbb2002ba6
:104e840046d0254bdb69fb60234b1b6afa689a42c8
:104e94003ed9214b9b6abb60204abb1d128d1a80f0
:104ea4001d4b1b6a3b601d4b5b6807221340012ba3
:104eb40008d0194b9a693b68d318ba1d1288d2b22c
:104ec4001a7007e0144b9a693b685b00d318ba1d4b
:104ed40012881a803b6801333b600f4b3a681a62b0
:104ee4000d4bdb693a689a4212d10b4b2c220021fc
:104ef4009954094b0022da61084b84221a75064b37
:104f04005b6a002b04d0044b5b6aba6810009847b4
:104f1400c046bd4604b080bde41400200008004231
:020000040000fa
:104f240080b584b002af264b1b78dbb2012253401c
:104f3400dbb2002b17d0bb1d00221a800ae0bb1d78
:104f44001a88204b52000021d152bb1d1a88bb1d68
:104f540001321a801c4b1b88ba1d12889a42eed368
:104f6400174b01221a70194b1b88dbb2013bdab2d2
:104f7400154b1b8800931300002200210020fff72b
:104f8400e9f8002300220021002001f039fb0f4b37
:104f94001b88dbb2013bdab20b4b1b880093130076
:104fa400002200210020fff7d5f800230022002171
:104fb400002001f025fbc046bd4602b080bdc046be
:104fc400281600202c160020701b00202a16002012
:020000040000fa
:104fd40090b587b000aff860b960bb1d1a80bb1de7
:104fe4001b88002b46d0bb1d1a8880235b009a4285
:104ff40040d802f029fc8223da058a235b00802151
:105004004904d150022000f035f9fb681b0cdbb2d7
:10501400180000f02ff9fb681b0adbb2180000f03f
:1050240029f9fb68dbb2180000f024f91623fb18f9
:1050340000221a800de016243b191b88ba68d31885
:105044001b78180000f016f93b191a883b19013235
:105054001a801623fa18bb1d12881b889a42ead3b9
:105064008223da058c235b0080214904d15002f0ad
:0c5074000df900e0c046bd4607b090bd3d
:020000040000fa
:1050800090b5c5b000af0200244b882149008c4682
:10509000bc4463441a708223da058a235b008021b2
:1050a0004905d1501e4b862149007a181360802390
:1050b0005b0008243a19791809681a48fdf766f860
:1050c000030084225200b9180b60144b8821490058
:1050d0008c46bc4463441b78012b07d1bb181a686b
:1050e0003b1911001800fff701fd12e00b4b88225d
:1050f00052009446bc4463441b78002b09d184239e
:105100005b00fb181a680823fb1811001800fff752
:1051100091fcc046bd4645b090bdc046f7feffffbe
:0851200010320000a431000070
:020000040000fa
:1051280090b5c5b000af0200244b882149008c46d9
:10513800bc4463441a708223da058c235b00802107
:105148004905d1501e4b862149007a1813608023e7
:105158005b0008243a19791809681a48fdf712f80b
:10516800030084225200b9180b60144b88214900af
:105178008c46bc4463441b78012b07d1bb181a68c2
:105188003b1911001800fff7adfc12e00b4b882209
:1051980052009446bc4463441b78002b09d18423f5
:1051a8005b00fb181a680823fb1811001800fff7aa
:1051b8003dfcc046bd4645b090bdc046f7feffff6a
:0851c80010320000ac310000c0
:020000040000fa
:1051d00080b582b000af3a60fb1d021c1a70bb1d87
:1051e0000a1c1a7002f02afcfb1d1b78db18dbb2cc
:1051f000180000f017fc03001a0001235340dbb233
:10520000002b03d002f04efb002331e0bb1d1b78c6
:10521000180000f007fc03001a0001235340dbb222
:10522000002b03d002f03efb002321e002f006fc3d
:10523000fb1d1b785b005bb2012213435bb2dbb248
:10524000180000f0effb03001a0001235340dbb20b
:10525000002b03d002f026fb002309e0002000f021
:10526000abf803001a003b681a7002f01bfb012325
:085270001800bd4602b080bd2c
:020000040000fa
:1052780080b584b000af0200fb1d1a700f23fb1825
:1052880000221a700723bb6038e0fb1d1a78bb6840
:105298001a4113000122134006d08223db0598210e
:1052a800802252045a5005e08223db059421802293
:1052b80052045a508223db059821802292045a50c6
:1052c8000f217a187b181b78db1813708223da05f4
:1052d80090235b00d3585b0e0122134005d07b1846
:1052e8007a18127801210a431a708223db05942167
:1052f800802292045a50bb68013bbb60bb68002bfc
:10530800c3da0f23fb181b781800bd4604b080bd14
:020000040000fa
:10531800b0b586b000aff860b960bb1d1a80bb6835
:10532800002b41d0bb1d1b88002b3dd08223da0502
:105338008a235b0080214904d1500320fff798ff9e
:10534800fb681b0cdbb21800fff792fffb681b0a17
:10535800dbb21800fff78cfffb68dbb21800fff721
:1053680087ff1623fb1800221a800ee016257b19ea
:105378001b88ba68d4180020fff77aff030023704f
:105388007b191a887b1901321a801623fa18bb1d5b
:1053980012881b889a42e9d38223da058c235b00a2
:1053a80080214904d15000e0c046bd4606b0b0bdda
:020000040000fa
:1053b80090b585b000af0200fb1d1a700f23fb18d3
:1053c80000221a7002f00ffc0023bb6020e00f24bb
:1053d8003a193b191b78db181370052000f0ecfd17
:1053e80002f062fd052000f0e7fd8223db05a02224
:1053f8009b585b0d0122134005d03b193a191278ce
:1054080001210a431a7002f0ddfbbb680133bb605f
:10541800bb68072bdbddfb1d1b78002b02d002f0dd
:10542800f3fb01e002f0dffb052000f0c5fd02f010
:105438003bfd052000f0c0fd02f0c4fb02f0d3fbe9
:0e5448000f23fb181b781800bd4605b090bd61
:020000040000fa
:1054560080b584b000af0200fb1d1a700f23fb1845
:1054660000221a7032e0fb1d1b785bb2002b07dab4
:105476008223da058c235b0080210903d15006e0e4
:105486008223da058a235b0080210903d15002f0ca
:10549600b9fd8223da058c235b0080218902d15075
:1054a60002f0b0fd8223da058a235b00802189029f
:1054b600d15002f0a7fdfa1dfb1d1b78db181370f7
:1054c6000f217b181a787b1801321a700f23fb18ec
:1054d6001b78072bc7d98223da058a235b00802134
:0c54e6000903d150c046bd4604b080bd93
:020000040000fa
:1054f40080b582b000af786039607b6801221340c8
:1055040038d0204b1b78dbb2012b13d0022b21d0d7
:10551400002b31d18223db0580225200da61822301
:10552400db05802292005a618223db058022d200af
:105534005a6122e08223db0580229200da61822311
:10554400db05802252005a618223db058022d200cf
:105554005a6112e08223db058022d200da618223c1
:10556400db05802252005a618223db0580229200ef
:105574005a6102e0c04600e0c046c046bd4602b0e3
:0855840080bdc0462616002080
:020000040000fa
:10558c0090b5c5b000af0200204b882149008c4675
:10559c00bc4463441a701e4b862149007a18136070
:1055ac0080235b0008243a19791809681948fcf71c
:1055bc00e7fd030084225200b9180b60134b8821bd
:1055cc0049008c46bc4463441b78012b07d1bb18a3
:1055dc001a683b1911001800fff782fa12e00b4b06
:1055ec00882252009446bc4463441b78002b09d19a
:1055fc0084235b00fb181a680823fb1811001800a1
:10560c00fff712fac046bd4645b090bdf7feffff4e
:08561c0014320000b43100005b
:020000040000fa
:1056240080b584b000af0200fb1d1a700023fb603c
:1056340033e08223da058a235b0080218900d1507c
:10564400fb1d1b785bb2002b07da8223da058c235f
:105654005b0080210901d15006e08223da058a2308
:105664005b0080210901d150fa1dfb1d1b78db185a
:1056740013708223da058a235b0080218900d150cc
:105684008223da058c235b0080218900d15001201c
:1056940000f094fcfb680133fb60fb68072bc8dd5a
:1056a4008223da058a235b0080218900d150c04619
:0656b400bd4604b080bdfc
:020000040000fa
:1056bc0080b500af1f4b204a1a601e4b1f4a9a81bf
:1056cc001c4bc02292025a60c0461a4bdb69002b5d
:1056dc00fbd1184b1a68174b02210a431a60c046bb
:1056ec00144bdb69002bfbd1154b00229a61144b38
:1056fc000022da61124b00221a62114b2c2200217b
:10570c0099540f4b00225a620d4b00221a600c4b1d
:10571c0000225a600a4b00229a60094b00221a752b
:10572c00074b0022da60064b0022da85c046bd46e4
:10573c0080bdc046000c004204011040b9fcffffc4
:04574c00b414002071
:020000040000fa
:1057500080b500af1f4b204a1a601e4b1f4a9a812a
:105760001c4bc02292025a60c0461a4bdb69002bc8
:10577000fbd1184b1a68174b02210a431a60c04626
:10578000144bdb69002bfbd1154b00229a61144ba3
:105790000022da61124b00221a62114b2c220021e6
:1057a00099540f4b00225a620d4b00221a600c4b89
:1057b00000225a600a4b00229a60094b00221a7597
:1057c000074b0022da60064b0022da85c046bd4650
:1057d00080bdc0460008004204011040b9fcffff34
:0457e000e4140020ad
:020000040000fa
:1057e40090b583b000af204b00221a700020fef762
:1057f400dff81e4b1b78dbb2012b2cd001f0a4ff89
:105804000020fef7d5f8194b1b78dbb2012b24d00e
:1058140001f09aff0120fef7cbf8144b1b78dbb2a2
:10582400012b1cd0fc1dfff7bbf903002370104ba8
:105834001a68fb1d1b781900100000f075fe02f0b9
:1058440019f801f067ff0a4b1b685a1c084b1a60d1
:1058540000f07cfa04e0c04602e0c04600e0c04626
:10586400bd4603b090bdc046281600202616002071
:04587400fc150020ff
:020000040000fa
:1058780030b405004d400124e407254042004b00a8
:10588800120e26d01b0e34d0ff2a2dd0ff2b35d078
:10589800d21a000220430902214343084908a00df7
